{
  "_format": "hh-sol-artifact-1",
  "contractName": "GetNameAge",
  "sourceName": "contracts/GetNameAge.sol",
  "abi": [
    {
      "inputs": [
        {
          "internalType": "string",
          "name": "_name",
          "type": "string"
        },
        {
          "internalType": "uint256",
          "name": "_age",
          "type": "uint256"
        }
      ],
      "stateMutability": "nonpayable",
      "type": "constructor"
    },
    {
      "inputs": [],
      "name": "getAge",
      "outputs": [
        {
          "internalType": "uint256",
          "name": "",
          "type": "uint256"
        }
      ],
      "stateMutability": "view",
      "type": "function"
    },
    {
      "inputs": [],
      "name": "getName",
      "outputs": [
        {
          "internalType": "string",
          "name": "",
          "type": "string"
        }
      ],
      "stateMutability": "view",
      "type": "function"
    }
  ],
  "bytecode": "0x608060405234801561001057600080fd5b5060405161068438038061068483398181016040528101906100329190610177565b8160009080519060200190610048929190610057565b50806001819055505050610347565b8280546100639061025e565b90600052602060002090601f01602090048101928261008557600085556100cc565b82601f1061009e57805160ff19168380011785556100cc565b828001600101855582156100cc579182015b828111156100cb5782518255916020019190600101906100b0565b5b5090506100d991906100dd565b5090565b5b808211156100f65760008160009055506001016100de565b5090565b600061010d610108846101f0565b6101cb565b90508281526020810184848401111561012557600080fd5b61013084828561022b565b509392505050565b600082601f83011261014957600080fd5b81516101598482602086016100fa565b91505092915050565b60008151905061017181610330565b92915050565b6000806040838503121561018a57600080fd5b600083015167ffffffffffffffff8111156101a457600080fd5b6101b085828601610138565b92505060206101c185828601610162565b9150509250929050565b60006101d56101e6565b90506101e18282610290565b919050565b6000604051905090565b600067ffffffffffffffff82111561020b5761020a6102f0565b5b6102148261031f565b9050602081019050919050565b6000819050919050565b60005b8381101561024957808201518184015260208101905061022e565b83811115610258576000848401525b50505050565b6000600282049050600182168061027657607f821691505b6020821081141561028a576102896102c1565b5b50919050565b6102998261031f565b810181811067ffffffffffffffff821117156102b8576102b76102f0565b5b80604052505050565b7f4e487b7100000000000000000000000000000000000000000000000000000000600052602260045260246000fd5b7f4e487b7100000000000000000000000000000000000000000000000000000000600052604160045260246000fd5b6000601f19601f8301169050919050565b61033981610221565b811461034457600080fd5b50565b61032e806103566000396000f3fe608060405234801561001057600080fd5b50600436106100365760003560e01c806317d7de7c1461003b578063967e6e6514610059575b600080fd5b610043610077565b6040516100509190610167565b60405180910390f35b610061610109565b60405161006e9190610189565b60405180910390f35b60606000805461008690610257565b80601f01602080910402602001604051908101604052809291908181526020018280546100b290610257565b80156100ff5780601f106100d4576101008083540402835291602001916100ff565b820191906000526020600020905b8154815290600101906020018083116100e257829003601f168201915b5050505050905090565b6000600260015461011a91906101c0565b905090565b600061012a826101a4565b61013481856101af565b9350610144818560208601610224565b61014d816102e7565b840191505092915050565b6101618161021a565b82525050565b60006020820190508181036000830152610181818461011f565b905092915050565b600060208201905061019e6000830184610158565b92915050565b600081519050919050565b600082825260208201905092915050565b60006101cb8261021a565b91506101d68361021a565b9250817fffffffffffffffffffffffffffffffffffffffffffffffffffffffffffffffff048311821515161561020f5761020e610289565b5b828202905092915050565b6000819050919050565b60005b83811015610242578082015181840152602081019050610227565b83811115610251576000848401525b50505050565b6000600282049050600182168061026f57607f821691505b60208210811415610283576102826102b8565b5b50919050565b7f4e487b7100000000000000000000000000000000000000000000000000000000600052601160045260246000fd5b7f4e487b7100000000000000000000000000000000000000000000000000000000600052602260045260246000fd5b6000601f19601f830116905091905056fea2646970667358221220ba60ef0e9825959a89541f6599d736a134dbffa35b7f1b345fcd01a1d4f0dd7164736f6c63430008040033",
  "linkReferences": {},
  "deployedLinkReferences": {}
}